{
  "contractName": "StakeVoting",
  "abi": [
    {
      "inputs": [],
      "payable": false,
      "stateMutability": "nonpayable",
      "type": "constructor"
    },
    {
      "constant": true,
      "inputs": [
        {
          "internalType": "uint256",
          "name": "",
          "type": "uint256"
        }
      ],
      "name": "candidateRateList",
      "outputs": [
        {
          "internalType": "uint256",
          "name": "",
          "type": "uint256"
        }
      ],
      "payable": false,
      "stateMutability": "view",
      "type": "function"
    },
    {
      "constant": true,
      "inputs": [
        {
          "internalType": "uint256",
          "name": "",
          "type": "uint256"
        }
      ],
      "name": "weightedVotesReceived",
      "outputs": [
        {
          "internalType": "uint256",
          "name": "",
          "type": "uint256"
        }
      ],
      "payable": false,
      "stateMutability": "view",
      "type": "function"
    },
    {
      "constant": false,
      "inputs": [
        {
          "internalType": "uint256",
          "name": "candidateRate",
          "type": "uint256"
        }
      ],
      "name": "addCandidateRate",
      "outputs": [],
      "payable": false,
      "stateMutability": "nonpayable",
      "type": "function"
    },
    {
      "constant": false,
      "inputs": [
        {
          "internalType": "uint256",
          "name": "candidateRate",
          "type": "uint256"
        },
        {
          "internalType": "uint256",
          "name": "stake",
          "type": "uint256"
        }
      ],
      "name": "voteForCandidateRate",
      "outputs": [],
      "payable": false,
      "stateMutability": "nonpayable",
      "type": "function"
    },
    {
      "constant": false,
      "inputs": [],
      "name": "finishVoting",
      "outputs": [
        {
          "internalType": "uint256",
          "name": "",
          "type": "uint256"
        }
      ],
      "payable": false,
      "stateMutability": "nonpayable",
      "type": "function"
    },
    {
      "constant": true,
      "inputs": [],
      "name": "getFinalRate",
      "outputs": [
        {
          "internalType": "string",
          "name": "",
          "type": "string"
        }
      ],
      "payable": false,
      "stateMutability": "view",
      "type": "function"
    },
    {
      "constant": true,
      "inputs": [
        {
          "internalType": "uint256",
          "name": "candidateRate",
          "type": "uint256"
        }
      ],
      "name": "validCandidateRate",
      "outputs": [
        {
          "internalType": "bool",
          "name": "",
          "type": "bool"
        }
      ],
      "payable": false,
      "stateMutability": "view",
      "type": "function"
    }
  ],
  "bytecode": "0x608060405234801561001057600080fd5b506001600260006101000a81548160ff02191690831515021790555060006003819055506000600481905550610b0c8061004b6000396000f3fe608060405234801561001057600080fd5b506004361061007d5760003560e01c8063c7df9a4f1161005b578063c7df9a4f14610183578063ca893282146101b1578063cc990077146101f3578063f9094303146102355761007d565b80632f0452f614610082578063b2c201c514610105578063b2edb8461461013d575b600080fd5b61008a610253565b6040518080602001828103825283818151815260200191508051906020019080838360005b838110156100ca5780820151818401526020810190506100af565b50505050905090810190601f1680156100f75780820380516001836020036101000a031916815260200191505b509250505060405180910390f35b61013b6004803603604081101561011b57600080fd5b8101908080359060200190929190803590602001909291905050506102e8565b005b6101696004803603602081101561015357600080fd5b8101908080359060200190929190505050610413565b604051808215151515815260200191505060405180910390f35b6101af6004803603602081101561019957600080fd5b8101908080359060200190929190505050610469565b005b6101dd600480360360208110156101c757600080fd5b810190808035906020019092919050505061057b565b6040518082815260200191505060405180910390f35b61021f6004803603602081101561020957600080fd5b8101908080359060200190929190505050610593565b6040518082815260200191505060405180910390f35b61023d6105b4565b6040518082815260200191505060405180910390f35b6060600260009054906101000a900460ff16156102d8576040517f08c379a00000000000000000000000000000000000000000000000000000000081526004018080602001828103825260178152602001807f566f74696e67206973206e6f742066696e69736865642e00000000000000000081525060200191505060405180910390fd5b6102e3600354610771565b905090565b600260009054906101000a900460ff16610324604051806060016040528060278152602001610ab16027913961031f600354610771565b6108bb565b906103ca576040517f08c379a00000000000000000000000000000000000000000000000000000000081526004018080602001828103825283818151815260200191508051906020019080838360005b8381101561038f578082015181840152602081019050610374565b50505050905090810190601f1680156103bc5780820380516001836020036101000a031916815260200191505b509250505060405180910390fd5b506103d482610413565b6103dd57600080fd5b80600080848152602001908152602001600020600082825401925050819055506004600081548092919060010191905055505050565b600080600090505b60018054905081101561045e57826001828154811061043657fe5b90600052602060002001541415610451576001915050610464565b808060010191505061041b565b50600090505b919050565b600260009054906101000a900460ff166104a5604051806060016040528060278152602001610ab1602791396104a0600354610771565b6108bb565b9061054b576040517f08c379a00000000000000000000000000000000000000000000000000000000081526004018080602001828103825283818151815260200191508051906020019080838360005b838110156105105780820151818401526020810190506104f5565b50505050905090810190601f16801561053d5780820380516001836020036101000a031916815260200191505b509250505060405180910390fd5b50600181908060018154018082558091505090600182039060005260206000200160009091929091909150555050565b60006020528060005260406000206000915090505481565b600181815481106105a057fe5b906000526020600020016000915090505481565b6000600260009054906101000a900460ff166105f2604051806060016040528060278152602001610ab1602791396105ed600354610771565b6108bb565b90610698576040517f08c379a00000000000000000000000000000000000000000000000000000000081526004018080602001828103825283818151815260200191508051906020019080838360005b8381101561065d578082015181840152602081019050610642565b50505050905090810190601f16801561068a5780820380516001836020036101000a031916815260200191505b509250505060405180910390fd5b506000600260006101000a81548160ff0219169083151502179055506000809050600080905060008090505b60018054905081101561075357600181815481106106de57fe5b9060005260206000200154600080600184815481106106f957fe5b906000526020600020015481526020019081526020016000205402830192506000806001838154811061072857fe5b90600052602060002001548152602001908152602001600020548201915080806001019150506106c4565b5080606483028161076057fe5b046003819055506003549250505090565b60608060016040519080825280601f01601f1916602001820160405280156107a85781602001600182028038833980820191505090505b509050602e60f81b816000815181106107bd57fe5b60200101907effffffffffffffffffffffffffffffffffffffffffffffffffffffffffffff1916908160001a9053506060819050606060016040519080825280601f01601f1916602001820160405280156108275781602001600182028038833980820191505090505b509050602560f81b8160008151811061083c57fe5b60200101907effffffffffffffffffffffffffffffffffffffffffffffffffffffffffffff1916908160001a90535060608190506108b061088f6108896064898161088357fe5b04610983565b856108bb565b6108ab6108a560648a8161089f57fe5b06610983565b846108bb565b6108bb565b945050505050919050565b606082826040516020018083805190602001908083835b602083106108f557805182526020820191506020810190506020830392506108d2565b6001836020036101000a03801982511681845116808217855250505050505090500182805190602001908083835b602083106109465780518252602082019150602081019050602083039250610923565b6001836020036101000a03801982511681845116808217855250505050505090500192505050604051602081830303815290604052905092915050565b606060008214156109cb576040518060400160405280600181526020017f30000000000000000000000000000000000000000000000000000000000000008152509050610aab565b600082905060005b600082146109f5578080600101915050600a82816109ed57fe5b0491506109d3565b6060816040519080825280601f01601f191660200182016040528015610a2a5781602001600182028038833980820191505090505b50905060006001830390505b60008614610aa357600a8681610a4857fe5b0660300160f81b82828060019003935081518110610a6257fe5b60200101907effffffffffffffffffffffffffffffffffffffffffffffffffffffffffffff1916908160001a905350600a8681610a9b57fe5b049550610a36565b819450505050505b91905056fe566f74696e672069732066696e69736865642c207468652066696e616c20726174652069733a20a265627a7a72315820f5fa7d9a12b4321dc0db5026b0e2ec211e9e041188466b4613d94a15ef3a513964736f6c63430005100032",
  "source": "// SPDX-License-Identifier: MIT\npragma solidity >=0.4.25 <0.7.0;\n\n// Stake-based Voting contract\ncontract StakeVoting {\n\n  mapping (uint => uint) public weightedVotesReceived;\n  uint[] public candidateRateList;\n  bool isOn;\n  /*\n   * Due to float type is not well supported, 100 times finalRate is used here\n   * to represent the percentage with 2 decimal.\n   */\n  uint finalRateX100;\n  uint totalVotingTimes;\n\n  constructor() public {\n    isOn = true;\n    finalRateX100 = 0;\n    totalVotingTimes = 0;\n  }\n\n  function addCandidateRate(uint candidateRate) public {\n    require(isOn, append(\"Voting is finished, the final rate is: \", finalRateToString(finalRateX100)));\n    //require(!validCandidateRate(candidateRate));\n    candidateRateList.push(candidateRate);\n  }\n\n  function voteForCandidateRate(uint candidateRate, uint stake) public {\n    require(isOn, append(\"Voting is finished, the final rate is: \", finalRateToString(finalRateX100)));\n    require(validCandidateRate(candidateRate));\n    weightedVotesReceived[candidateRate]  += stake;\n    totalVotingTimes ++;\n  }\n\n  function finishVoting() public returns (uint) {\n    require(isOn, append(\"Voting is finished, the final rate is: \", finalRateToString(finalRateX100)));\n    isOn = false;\n    uint sumOfWeightedRate = 0;\n    uint sumOfStake = 0;\n    for(uint i = 0; i < candidateRateList.length; i++) {\n      sumOfWeightedRate += weightedVotesReceived[candidateRateList[i]] * candidateRateList[i];\n      sumOfStake += weightedVotesReceived[candidateRateList[i]];\n    }\n    finalRateX100 = sumOfWeightedRate * 100 / sumOfStake;\n    return finalRateX100;\n  }\n\n  function getFinalRate() view public returns(string memory) {\n    require(!isOn, \"Voting is not finished.\");\n    return finalRateToString(finalRateX100);\n  }\n\n  function validCandidateRate(uint candidateRate) view public returns (bool) {\n    for(uint i = 0; i < candidateRateList.length; i++) {\n      if (candidateRateList[i] == candidateRate) {\n        return true;\n      }\n    }\n    return false;\n  }\n\n  function append(string memory a, string memory b) internal pure returns (string memory) {\n    return string(abi.encodePacked(a, b));\n  }\n\n  function finalRateToString(uint _finalRateX100) internal pure returns (string memory) {\n    // full stop sign \".\"\n    bytes memory bstrFullStopSign = new bytes(1);\n    bstrFullStopSign[0] = byte(uint8(46));\n    string memory fullStopSign = string(bstrFullStopSign);\n    // percent sign \"%\"\n    bytes memory bstrPercentSign = new bytes(1);\n    bstrPercentSign[0] = byte(uint8(37));\n    string memory percentSign = string(bstrPercentSign);\n    return append(append(uintToString(_finalRateX100 / 100), fullStopSign), append(uintToString(_finalRateX100 % 100), percentSign));\n  }\n\n  function uintToString(uint _i) internal pure returns (string memory) {\n    if (_i == 0) {\n      return \"0\";\n    }\n    uint j = _i;\n    uint len;\n    while (j != 0) {\n      len++;\n      j /= 10;\n    }\n    bytes memory bstr = new bytes(len);\n    uint k = len - 1;\n    while (_i != 0) {\n      bstr[k--] = byte(uint8(48 + _i % 10));\n      _i /= 10;\n    }\n    return string(bstr);\n  }\n}",
  "sourcePath": "E:\\lhx\\A. 其他\\求学\\HK-MSc\\1. lhx-CUHK\\2021R1-FTEC5510\\project\\test7\\contracts\\Voting.sol",
  "compiler": {
    "name": "solc",
    "version": "0.5.16+commit.9c3226ce.Emscripten.clang"
  },
  "schemaVersion": "3.4.3",
  "updatedAt": "2021-11-16T08:50:06.491Z",
  "networkType": "ethereum",
  "devdoc": {
    "methods": {}
  },
  "userdoc": {
    "methods": {}
  }
}